{
  "_format": "hh-sol-artifact-1",
  "contractName": "L8TrafficPayment",
  "sourceName": "contracts/l8TrafficPayment.sol",
  "abi": [
    {
      "inputs": [
        {
          "internalType": "address payable",
          "name": "_receiver",
          "type": "address"
        }
      ],
      "stateMutability": "nonpayable",
      "type": "constructor"
    },
    {
      "inputs": [],
      "name": "TransferFailed",
      "type": "error"
    },
    {
      "anonymous": false,
      "inputs": [
        {
          "indexed": false,
          "internalType": "string",
          "name": "clientID",
          "type": "string"
        },
        {
          "indexed": false,
          "internalType": "address",
          "name": "payer",
          "type": "address"
        },
        {
          "indexed": false,
          "internalType": "uint256",
          "name": "amount",
          "type": "uint256"
        }
      ],
      "name": "TrafficPaid",
      "type": "event"
    },
    {
      "inputs": [],
      "name": "owner",
      "outputs": [
        {
          "internalType": "address",
          "name": "",
          "type": "address"
        }
      ],
      "stateMutability": "view",
      "type": "function"
    },
    {
      "inputs": [
        {
          "internalType": "string",
          "name": "clientID",
          "type": "string"
        }
      ],
      "name": "pay",
      "outputs": [],
      "stateMutability": "payable",
      "type": "function"
    },
    {
      "inputs": [],
      "name": "receiver",
      "outputs": [
        {
          "internalType": "address payable",
          "name": "",
          "type": "address"
        }
      ],
      "stateMutability": "view",
      "type": "function"
    },
    {
      "inputs": [
        {
          "internalType": "address payable",
          "name": "_newReceiverAddress",
          "type": "address"
        }
      ],
      "name": "setReceiverAddress",
      "outputs": [],
      "stateMutability": "nonpayable",
      "type": "function"
    }
  ],
  "bytecode": "0x60a060405234801561001057600080fd5b506040516107ce3803806107ce8339818101604052810190610032919061010f565b3373ffffffffffffffffffffffffffffffffffffffff1660808173ffffffffffffffffffffffffffffffffffffffff1681525050806000806101000a81548173ffffffffffffffffffffffffffffffffffffffff021916908373ffffffffffffffffffffffffffffffffffffffff1602179055505061013c565b600080fd5b600073ffffffffffffffffffffffffffffffffffffffff82169050919050565b60006100dc826100b1565b9050919050565b6100ec816100d1565b81146100f757600080fd5b50565b600081519050610109816100e3565b92915050565b600060208284031215610125576101246100ac565b5b6000610133848285016100fa565b91505092915050565b60805161067061015e600039600081816101e701526102b801526106706000f3fe60806040526004361061003f5760003560e01c80632b66d72e146100445780638279c7db146100605780638da5cb5b14610089578063f7260d3e146100b4575b600080fd5b61005e6004803603810190610059919061036d565b6100df565b005b34801561006c57600080fd5b5061008760048036038101906100829190610418565b6101e5565b005b34801561009557600080fd5b5061009e6102b6565b6040516100ab9190610466565b60405180910390f35b3480156100c057600080fd5b506100c96102da565b6040516100d69190610490565b60405180910390f35b60008060009054906101000a900473ffffffffffffffffffffffffffffffffffffffff1673ffffffffffffffffffffffffffffffffffffffff1634604051610126906104dc565b60006040518083038185875af1925050503d8060008114610163576040519150601f19603f3d011682016040523d82523d6000602084013e610168565b606091505b50509050806101a3576040517f90b8ec1800000000000000000000000000000000000000000000000000000000815260040160405180910390fd5b7fa20f8cce0729d47bb4077d361e2dbb8dd387452d6915af161c8851288fcaf3b5838333346040516101d89493929190610568565b60405180910390a1505050565b7f000000000000000000000000000000000000000000000000000000000000000073ffffffffffffffffffffffffffffffffffffffff163373ffffffffffffffffffffffffffffffffffffffff1614610273576040517f08c379a000000000000000000000000000000000000000000000000000000000815260040161026a9061061a565b60405180910390fd5b806000806101000a81548173ffffffffffffffffffffffffffffffffffffffff021916908373ffffffffffffffffffffffffffffffffffffffff16021790555050565b7f000000000000000000000000000000000000000000000000000000000000000081565b60008054906101000a900473ffffffffffffffffffffffffffffffffffffffff1681565b600080fd5b600080fd5b600080fd5b600080fd5b600080fd5b60008083601f84011261032d5761032c610308565b5b8235905067ffffffffffffffff81111561034a5761034961030d565b5b60208301915083600182028301111561036657610365610312565b5b9250929050565b60008060208385031215610384576103836102fe565b5b600083013567ffffffffffffffff8111156103a2576103a1610303565b5b6103ae85828601610317565b92509250509250929050565b600073ffffffffffffffffffffffffffffffffffffffff82169050919050565b60006103e5826103ba565b9050919050565b6103f5816103da565b811461040057600080fd5b50565b600081359050610412816103ec565b92915050565b60006020828403121561042e5761042d6102fe565b5b600061043c84828501610403565b91505092915050565b6000610450826103ba565b9050919050565b61046081610445565b82525050565b600060208201905061047b6000830184610457565b92915050565b61048a816103da565b82525050565b60006020820190506104a56000830184610481565b92915050565b600081905092915050565b50565b60006104c66000836104ab565b91506104d1826104b6565b600082019050919050565b60006104e7826104b9565b9150819050919050565b600082825260208201905092915050565b82818337600083830152505050565b6000601f19601f8301169050919050565b600061052e83856104f1565b935061053b838584610502565b61054483610511565b840190509392505050565b6000819050919050565b6105628161054f565b82525050565b60006060820190508181036000830152610583818688610522565b90506105926020830185610457565b61059f6040830184610559565b95945050505050565b7f4f6e6c79206f776e657220697320616c6c6f77656420746f206578656375746560008201527f20746869732066756e6374696f6e000000000000000000000000000000000000602082015250565b6000610604602e836104f1565b915061060f826105a8565b604082019050919050565b60006020820190508181036000830152610633816105f7565b905091905056fea26469706673582212200fc959385fa375a74bd1ae7f0a249c96663db78632a267c3953414b6ac34db0a64736f6c634300081c0033",
  "linkReferences": {},
  "deployedLinkReferences": {}
}